:020000040800F2
:10000000005000207904000861040008630400081F
:100010006504000867040008690400080000000087
:100020000000000000000000000000006B04000859
:100030006D040008000000006F040008710400084F
:10004000C1040008C1040008C1040008C10400087C
:10005000C1040008C1040008C1040008C10400086C
:10006000C1040008C1040008C1040008C10400085C
:10007000C1040008C1040008C1040008C10400084C
:10008000C1040008C1040008C1040008C10400083C
:10009000C1040008C1040008C1040008C10400082C
:1000A000C1040008C1040008C1040008C10400081C
:1000B000C1040008C1040008C1040008C10400080C
:1000C000C1040008C1040008C1040008C1040008FC
:1000D000C1040008C1040008C1040008C1040008EC
:1000E000C1040008C1040008C104000800000000A9
:1000F0000000000000000000000000000000000000
:0C01000000000000000000005FF808F1A3
:10010C0010B5054C237833B9044B13B10448AFF345
:10011C0000800123237010BD180000200000000097
:10012C00681C000808B5034B1BB103490348AFF327
:10013C00008008BD000000001C000020681C0008A6
:10014C0010F8012B11F8013B012A28BF9A42F7D075
:10015C00D01A704773B50D4D0D4E01210B4800F0B0
:10016C0023FB044668B90221284600F028FB022331
:10017C0022468DF80730306823460DF1070100F058
:10018C00AEFF0A2001F09AFBE7E700BF0008014030
:10019C007C00002037B5104D104C41F28832286895
:1001AC000DF1070101F01DF80128024606D19DF85A
:1001BC000710022906D1204600F001FB642001F053
:1001CC007DFBEAE721B90221204600F0F3FAF5E7BE
:1001DC000129F3D10022F6E77C0000200008014041
:1001EC0073B5174C174D184E4FF0FF330A222846A3
:1001FC00134900F00AFE0028F6D131462046FFF7DD
:10020C009FFF034648B98DF8070010481A460DF1B8
:10021C000701006800F063FFE6E720460C49FFF792
:10022C008FFF034618B901228DF80720EDE7204611
:10023C000849FFF785FF03460028D5D10222F3E7D2
:10024C000000002034000020801C00087C000020EE
:10025C00871C00088F1C000800B591B024220021D7
:10026C0007A801F0C0FC1422002101A801F0BBFC7E
:10027C00022301210693102306A8CDE90A1300F0EE
:10028C00A7FA014608B172B6FEE70F23CDE90300C9
:10029C00CDE90130059001A800F05CFC08B172B604
:1002AC00FEE711B05DF804FB00B589B000F028F949
:1002BC00FFF7D2FF10220024012500210DEB0200D4
:1002CC0001F091FC294B02219A69294842F0040261
:1002DC009A619B69002203F004030393039B00F0D3
:1002EC0069FA234804A9CDE90454069500F082F973
:1002FC0002231F4804A9CDE90643CDE9043500F0DB
:10030C0079F94FF416531B481B4AC0E90244C0E963
:10031C0000230C230461C0E90534C46100F046FDE0
:10032C00044608B172B6FEE702462946642000F086
:10033C00B4FE124B8022186011492346CDE90054BB
:10034C00104801F05DF8234680220F49CDE9005496
:10035C000E4801F055F8234680220D49CDE9005492
:10036C000C4801F04DF801F02BF9FEE700100240AB
:10037C000008014034000020003801407C000020BF
:10038C009A1C0008ED010008A51C0008A10100083A
:10039C00AE1C0008610100080E4B82B09A6942F055
:1003AC0001029A619A6902F001020092009ADA69DC
:1003BC0042F08052DA61DB69074A03F08053019303
:1003CC00019B536823F0E06343F00073536002B069
:1003DC00704700BF001002400000014010B50446F9
:1003EC0086B01022002102A801F0FDFB2268174BF9
:1003FC009A4228D103F558439A69154842F4804231
:10040C009A619A6902A902F480420092009A9A6950
:10041C0042F004029A619B694FF4007203F00403EA
:10042C000193019B0223CDE902230323059300F0E2
:10043C00E1F84FF4806100230548CDE9021302A9CD
:10044C00049300F0D7F806B010BD00BF003801408F
:10045C0000080140FEE7FEE7FEE7FEE7FEE7704717
:10046C007047704700F05EB870470000FFF7FCFF64
:10047C000B480C490C4A002302E0D458C4500433F6
:10048C00C4188C42F9D3094A094C002301E01360CB
:10049C000432A242FBD301F0AFFBFFF705FF70471C
:1004AC000000002018000020F01C0008180000209C
:1004BC0090450020FEE7000038B50E4B05461A7833
:1004CC004FF47A73B3FBF2F30B4A1068B0FBF3F002
:1004DC0000F07CF8044658B90F2D09D8024629467D
:1004EC004FF0FF3000F042F82046044B1D6038BD41
:1004FC000120FCE708000020040000200C00002074
:10050C00074A08B51368032043F01003136000F08A
:10051C001BF80F20FFF7D0FFFFF73EFF002008BDB0
:10052C0000200240034A044B11681B780B441360F3
:10053C00704700BF8000002008000020014B1868A5
:10054C00704700BF8000002007490302CA6803F40B
:10055C00E06322F4E0621204120C134343F0BF6315
:10056C0043F40033CB60704700ED00E0154B30B521
:10057C00DC68C4F30224C4F10703251D042B28BF37
:10058C000423062D4FF0FF3594BF0024033C05FADD
:10059C0003F321EA0303A54022EA0502A340002845
:1005AC0043EA0203ACBF00F16040074A4FEA031371
:1005BC00DBB2ABBF00F5614000F00F0080F80033F8
:1005CC00135430BD00ED00E014ED00E00138B0F143
:1005DC00807F0BD24FF0E023F021054A586182F85E
:1005EC0023100020072298611A6170470120704780
:1005FC0000ED00E02DE9F74F00221646644F654BE5
:10060C00DFF894C1DFF894E10D6835FA06F402D1F5
:10061C0003B0BDE8F08F4FF0010808FA06F805EAC0
:10062C00080438EA05057AD14D68032D07D8013D39
:10063C00022D00F28780DFE805F0959AA000122DBC
:10064C0000F098806DD8112D00F08E80FF2C98BF93
:10065C0082464FF00F0988BF00F1040A4FEA860565
:10066C00DAF8008088BF203D09FA05FB28EA0B0860
:10067C0002FA05F548EA0505CAF80050D1F804A0BD
:10068C001AF0805F4BD0BD6926F0030845F00105D8
:10069C00BD61BD6908F1804805F00105019508F5BB
:1006AC00803806F0030B019D4FEA8B0BD8F80850ED
:1006BC0009FA0BF925EA0909394DA84261D005F56B
:1006CC008065A8425FD005F58065A8425DD005F530
:1006DC008065A8420CBF0325042505FA0BF545EAF5
:1006EC000905C8F808509D681AF4801F14BF2543EB
:1006FC00A5439D60DD681AF4001F14BF2543A54374
:10070C00DD605D681AF4003F14BF2543A5435D60AE
:10071C001D681AF4803F14BF2543A5431D600136A4
:10072C0072E7DFF880904D450CD017D8A9F58019E9
:10073C004D4507D009F570294D4503D0A9F5801911
:10074C004D4583D18A68D2B1012A08BFC0F8108008
:10075C004FF0080218BFC0F8148077E76545F1D058
:10076C007545EEE7CA6871E7CA6804326EE7CA6875
:10077C0008326BE7CA680C3268E7002266E704228D
:10078C0064E70025A9E70125A7E70225A5E700BF37
:10079C000010024000040140000031100000321033
:1007AC0000080140000022108368194214BF012088
:1007BC00002070470AB1016170470904FBE7C36868
:1007CC0001EA030221EA030141EA02410161704797
:1007DC002DE9F341054638B30368DB0710D42B68C9
:1007EC009F075ED42B68190700F195802B685A0778
:1007FC0000F1C180E869002840F02C81002029E03C
:10080C00904C636803F00C03042B07D0636803F06F
:10081C000C03082B0AD16368DE0307D523689C03FD
:10082C00DDD56B68002BDAD1012013E06B68B3F5D2
:10083C00803F12D1236843F480332360FFF77EFEA0
:10084C00064623689803CAD4FFF778FE801B6428F9
:10085C00F7D9032002B0BDE8F0819BB9236823F4DB
:10086C0080332360236823F480232360FFF766FE24
:10087C00064623689903B2D5FFF760FE801B6428F7
:10088C00F7D9E6E7B3F5A02F236803D143F480230F
:10089C002360CFE723F480332360236823F4802381
:1008AC00CBE7684C636813F00C0F07D0636803F058
:1008BC000C03082B10D16368DA030DD423689B0753
:1008CC0002D52B69012BAFD123686A6923F0F80399
:1008DC0043EAC203236085E72A695B4B6AB10122B4
:1008EC001A60FFF72BFE064623689F07ECD4FFF730
:1008FC0025FE801B0228F7D9ABE71A60FFF71EFE16
:10090C000646236898077FF56DAFFFF717FE801B2F
:10091C000228F6D99DE7AA694A4E4B4BE2B1012257
:10092C00C3F88024FFF70AFE0446736A9B070DD5B3
:10093C004FF4FA52454B1B68B3FBF2F3019300BF23
:10094C00019B5A1E0192002BF9D14FE7FFF7F6FDE0
:10095C00001B0228E9D97CE7C3F88024FFF7EEFDE1
:10096C000446736A9F077FF541AFFFF7E7FD001B55
:10097C000228F6D96DE7334CE369D80024D401275B
:10098C00E36943F08053E361E36903F08053009320
:10099C00009B2F4E3368D90518D5EB68012B26D157
:1009AC00236A43F001032362FFF7C8FD41F2883844
:1009BC000646236A9B073FD5002F3FF41BAFE36924
:1009CC0023F08053E36115E70027E2E7336843F433
:1009DC0080733360FFF7B2FD80463368DA05DCD4F0
:1009EC00FFF7ACFDA0EB08006428F6D931E7ABB9F2
:1009FC00236A41F2883823F001032362236A23F02F
:100A0C0004032362FFF79AFD0646236A9807D3D5A1
:100A1C00FFF794FD801B4045F7D91AE7052B236A95
:100A2C0003D143F004032362BAE723F001032362EA
:100A3C00236A23F00403B6E7FFF780FD801B4045D3
:100A4C00B7D906E700100240000042420400002023
:100A5C00007000402A4C636803F00C03082B3ED056
:100A6C000022284B02281A662CD1FFF767FD064698
:100A7C002368990120D42B6AB3F5803F05D16268B5
:100A8C00A96822F400320A436260696A62680B4307
:100A9C0022F474121343012263601A4B1A66FFF797
:100AAC004DFD054623689A013FF5A8AEFFF746FDBC
:100ABC00401B0228F6D9CCE6FFF740FD801B02282C
:100ACC00D6D9C6E6FFF73AFD054623689B017FF5AC
:100ADC0095AEFFF733FD401B0228F6D9B9E6012885
:100AEC003FF4B8AE63682A6A03F4803191427FF414
:100AFC009BAE6A6A03F4701393423FF47FAE93E6A5
:100B0C0000100240000042420D4A536803F00C01F1
:100B1C00082912D10B48C3F38341DB03405C09D590
:100B2C005368094AC3F340435043084AD35CB0FBB3
:100B3C00F3F07047064B584370470348704700BFAB
:100B4C0000100240CE1C000800127A00DE1C0008C7
:100B5C0000093D002DE9F0410D46044610B9012075
:100B6C00BDE8F081444A136803F007038B4228D395
:100B7C0021688E0730D4CA0743D43F4A136803F068
:100B8C000703AB4265D822683C4D12F0040F6CD1C0
:100B9C00130706D56B68226923F4605343EAC2033A
:100BAC006B60FFF7B1FF6B68354AC3F30313D35C7B
:100BBC00D840344B1860344B1868FFF77DFC00208C
:100BCC00CEE7136823F007030B431360136803F09D
:100BDC0007038B42C3D1CBE7284B11F0040F1EBF88
:100BEC005A6842F4E0625A60080742BF5A6842F4FD
:100BFC0060525A605A68A06822F0F00202435A60B0
:100C0C00B9E762681D4E012A33681AD113F4003F0C
:100C1C00A5D0736841F2883823F003031343736043
:100C2C00FFF78CFC07467368626803F00C03B3EBA8
:100C3C00820FA2D0FFF782FCC01B4045F3D90320E2
:100C4C008EE7022A02D113F0007FE1E713F0020FC6
:100C5C00DEE7136823F007032B431360136803F0DC
:100C6C000703AB427FF47BAF8DE76B68E16823F43D
:100C7C00E0630B436B608BE70020024000100240E6
:100C8C00B61C0008040000200C000020044B054A90
:100C9C005B68C3F30223D35C034A1068D8407047E7
:100CAC0000100240C61C000804000020044B054A3A
:100CBC005B68C3F3C223D35C034A1068D840704707
:100CCC0000100240C61C00080400002010B50446A9
:100CDC000368C1681A6922F440520A431A61826897
:100CEC000069D9680243606921F4B05121F00C010C
:100CFC0002430A43DA605A69A16922F440720A433A
:100D0C005A610E4A934215D1FFF7D0FF1923434382
:100D1C00626820689200B3FBF2F36422B3FBF2F139
:100D2C0002FB11331B013233B3FBF2F303EB011360
:100D3C00836010BDFFF7AAFFE8E700BF0038014051
:100D4C00F8B504460E4617461D462268136836EA67
:100D5C00030301D1002028E06B1CF7D025B1FFF76D
:100D6C00EDFBC01B8542F0D2226802F10C0353E864
:100D7C00003F23F4D0730C3242E800302168002885
:100D8C00F2D101F1140353E8003F23F0010301F108
:100D9C00140040E80032002AF3D12023032084F809
:100DAC00413084F8402084F84230F8BD10B5044638
:100DBC0048B390F8413003F0FF021BB980F8402093
:100DCC00FFF70CFB2423226884F84130D3682046BB
:100DDC0023F40053D360FFF779FF236800201A69CE
:100DEC0022F490421A615A6922F02A025A61DA6896
:100DFC0042F40052DA602023606484F8413084F8B5
:100E0C004230606310BD0120FCE72DE9F8431F461A
:100E1C0090F842300446202B0E46914643D10029CF
:100E2C0043D0002A41D022230025456480F842306B
:100E3C000563FFF783FBA3688046B3F5805FA4F8D6
:100E4C002C90A4F82E9003D123690BB935461E467D
:100E5C00E08D80B220B9202384F84230BDE8F883BD
:100E6C003B46424620212046FFF76AFFF8B923682B
:100E7C004EB95B68C3F3080325F8023BE38D013BD5
:100E8C009BB2E385E4E7A268B2F5805F02D032B989
:100E9C00226922B95968C9B206F8011BEEE75968F4
:100EAC0001F07F01F8E70220D8E70120D6E7032004
:100EBC00D4E74FF0FF3200F10803C0E9022343608E
:100ECC00036100230360704700230361704730B552
:100EDC000C68631C0AD103695A684A6091608B6084
:100EEC005960036808610133036030BD00F10802EA
:100EFC00134652681568A542FAD9EDE70369D0E9A3
:100F0C0001128A6051605968814208BF5A60002200
:100F1C0002611A68013A1A601868704710B50446E5
:100F2C0000F0EEFDA46B00F0FBFDB4FA84F0400978
:100F3C0010BD70B51646026C0446856B62B17EB965
:100F4C00406800F07DFE6368226C1344A268636005
:100F5C00934201D32368636001350020A56370BD03
:100F6C00C06800F06DFE226CE36851429B1A226847
:100F7C00E36093423EBFA3685B18E360022EEBD1A3
:100F8C00002DE9D0013DE7E703461A6C084610B482
:100F9C0062B1DC68996814448C4228BF1968DC6023
:100FAC0028BFD960D96810BC00F04ABE10BC70478D
:100FBC0070B5044600F0A4FD94F8455004F12406E5
:100FCC006DB2002D14DCFF2384F8453000F0A8FD31
:100FDC0000F096FD94F8445004F110066DB2002D0B
:100FEC0012DCFF2384F84430BDE8704000F098BD5B
:100FFC00636A002BE7D0304600F0B8FC08B100F073
:10100C0047FD013D6DB2DCE72369002BE9D030468A
:10101C0000F0ACFC08B100F03BFD013D6DB2DEE729
:10102C0070B50E46044610B3C06B00B3236CA3FB23
:10103C000035DDB900F064FDD4E90F314B43226873
:10104C00A563D0185B1A62601A44FF23A06084F871
:10105C004430E26084F8453056B104F11000FFF7DB
:10106C0028FF04F12400FFF724FF12E0002070BDDC
:10107C00236973B104F1100000F078FC48B14FF013
:10108C00E0234FF08052C3F8042DBFF34F8FBFF312
:10109C006F8F00F045FD0120E9E770B50D4606465F
:1010AC0010B90024204670BDA0FB0123002BF8D101
:1010BC00484310F1490FF4D8483000F065FD044660
:1010CC000028EED04DB100F1480301212046C4E9BF
:1010DC000F652360FFF7A4FFE4E70346F5E72DE96E
:1010EC00F0434FF0000804460F461E46C14685B03B
:1010FC00019200F005FDA26BE36B9A4201D3022E24
:10110C001BD1324639462046FFF713FF636A1BB1E9
:10111C0004F1240000F02AFC48B14FF0E0234FF01A
:10112C008052C3F8042DBFF34F8FBFF36F8F00F0C5
:10113C00F7FC012005B0BDE8F083019D1DB900F05E
:10114C00EFFC0020F6E7B8F1000F02D102A800F086
:10115C006BFC00F0E5FC00F065FA00F0D1FC94F8B3
:10116C004430FF2B08BF84F8449094F84530FF2B93
:10117C0008BF84F8459000F0D3FC01A902A800F048
:10118C005FFC40BB00F0BCFCA26BE36B9A420FD13E
:10119C0000F0C6FC019904F1100000F0D7FB2046CA
:1011AC00FFF706FF00F0F6FA50B14FF00108A0E788
:1011BC0000F0B6FC2046FFF7FBFE00F0EBFAF4E77C
:1011CC004FF0E0234FF08052C3F8042DBFF34F8F44
:1011DC00BFF36F8FE9E72046FFF7EAFE00F0DAFA7B
:1011EC00AFE72DE9FF41002704460E46B8460192B1
:1011FC0000F086FCA56BE5B131462046013DFFF7BA
:10120C00C3FEA563236973B104F1100000F0AEFBBB
:10121C0048B14FF0E0234FF08052C3F8042DBFF3D8
:10122C004F8FBFF36F8F00F07BFC012004B0BDE843
:10123C00F081019D1DB900F073FC0020F6E717B991
:10124C0002A800F0F1FB00F06BFC00F0EBF900F0F1
:10125C0057FC94F84430FF2B08BF84F8448094F872
:10126C004530FF2B08BF84F8458000F059FC01A9DC
:10127C0002A800F0E5FB00BB2046FFF74FFEB0B123
:10128C00019904F1240000F061FB2046FFF790FE69
:10129C0000F080FA48B94FF0E0234FF08052C3F8C9
:1012AC00042DBFF34F8FBFF36F8F0127A0E72046AC
:1012BC00FFF77EFE00F06EFAF7E72046FFF778FEA8
:1012CC0000F068FA2046FFF729FE0028EDD0B4E7BD
:1012DC00F8B5214B214C06461D6820680F4604309A
:1012EC00FFF70CFE40B922681D49D06A01220B6839
:1012FC00824023EA02030B60731C14D19FB1194B7B
:10130C0021685A6890688A602168C8602168906872
:10131C0004314160216804319160226853611A687C
:10132C0001321A60F8BD2368AD195D6007D30E4B0E
:10133C0018682168BDE8F8400431FFF7C8BD0B4BB5
:10134C00186821680431FFF7C2FD094B1A68AA42DC
:10135C0088BF1D60E6E700BF8001002084000020EC
:10136C0004010020580100208C000020880000207F
:10137C0034010020064A13681968064B19B94FF05E
:10138C00FF321A6070471268D2681268F9E700BF22
:10139C00880000203401002080B5154C154F164EE6
:1013AC00236873B9154B1B68012BF8D94FF0E02358
:1013BC004FF08052C3F8042DBFF34F8FBFF36F8FE4
:1013CC00EDE700F09DFBFB68DD68281DFFF796FD3F
:1013DC003368013B33602368013B236000F0A0FBC2
:1013EC00286B00F0FFFB284600F0FCFBD8E700BFA1
:1013FC00F80000206C010020F40000209000002078
:10140C002DE9F0474FEA820A074650460E469846A9
:10141C00DDF8249000F0B8FB0546002800F0998018
:10142C004C2000F0B1FB0446002800F08F804C22C9
:10143C000021AAF1040A00F0D6FB2563554425F0DF
:10144C000705002E40F08880089B261D042B28BF22
:10145C0004239A46E3623046FFF736FD04F1180088
:10146C00FFF732FDCAF1050342463946284624618E
:10147C00A361646200F032FB2060B9F1000F01D06F
:10148C00C9F8004000F03CFB404B414F1A68DFF8B4
:10149C00048101321A603D68002D6CD13C601B68E0
:1014AC00012B1FD1C14648460135FFF702FD052D22
:1014BC0009F11409F7D1DFF8E090384D4846FFF7F1
:1014CC00F8FC2846FFF7F5FC3548FFF7F2FC3548E9
:1014DC00FFF7EFFC3448FFF7ECFC344BC3F80090FB
:1014EC00334B1D600125334A3349136808680133B7
:1014FC001360E36A05FA03F202430A6014225343B1
:10150C0008EB030042689168A260E16091684E604C
:10151C00966058F8032060612A4448F8032000F0D4
:10152C00FFFA264B1B6873B13B68DA6AE36A9A428E
:10153C0009D24FF0E0234FF08052C3F8042DBFF3D3
:10154C004F8FBFF36F8F2846BDE8F087284600F019
:10155C0049FB4FF0FF35F6E7731E04F133020F36EB
:10156C0013F8011F02F8011F09B19E42F8D10023A4
:10157C0084F8433068E7114B1A68E36A002AB1D14A
:10158C003A68D26A9A4298BF3C60ABE7F4000020FC
:10159C008400002090000020080100201C01002085
:1015AC00400100206C010020580100208800002020
:1015BC008C000020000100200401002054010020B8
:1015CC0013B50024104B8022019310492346104878
:1015DC000094FFF715FF012811D14FF0BF0383F3DF
:1015EC001188BFF36F8FBFF34F8F4FF0FF32094B52
:1015FC001A60094B1860094B1C6000F0A7FA084BE5
:10160C001B6802B010BD00BF30010020E01C0008B8
:10161C00A513000834010020540100208001002093
:10162C0010000020024A136801331360704700BF9A
:10163C00FC0000202DE9F84F4B4B1B68002B40F0B1
:10164C008C804A4B1C6801341C605CB9484A494B7D
:10165C00116818681060484A1960136801331360E8
:10166C00FFF788FEDFF814C10020DCF80030444A94
:10167C009C42DFF810910FD21421D9F80030DB6AAC
:10168C004B43D358022B404B28BF01201B68002B27
:10169C0018BF0120BDE8F88F8346DFF8D480D8F856
:1016AC0000301B6823B94FF0FF33CCF80030E3E770
:1016BC00D8F80030DB68DB6859688C4202D2CCF871
:1016CC000010D9E75D69D3E902178F60796069680A
:1016DC001E1DB142296808BF6F600139C3F814B0F0
:1016EC0029609D6A95B1D3E907178F60D3F820A0C4
:1016FC0003F11807CAF804106968B942296808BFD1
:10170C00C5F804A00139C3F828B029600121DFF81D
:10171C007CE0DD6ADEF80070A9403943CEF8001099
:10172C00142101FB05FA02EB0A077968D1F808E0ED
:10173C009960C3F80CE0D1F808E0CEF804608E6034
:10174C005F6152F80A30013342F80A30D9F80030A0
:10175C00DB6A9D4288BF0120A1E70D4A0020136877
:10176C000133136096E700BFFC00002080010020CD
:10177C00880000208C00002038010020340100205B
:10178C00900000208400002084010020040100202F
:10179C003C0100202DE9F84F00F0B2F93F4B1A68DC
:1017AC00013A1A601B682BB1002400F0B9F92046ED
:1017BC00BDE8F88F3A4A1268002AF5D04FF0010CB8
:1017CC004FF0140E374D384E3849DFF8E480DFF80F
:1017DC00E49040E0EB68DB68986AD3E907249460F6
:1017EC006260426803F11807BA424FF0000208BF6A
:1017FC0044609A620268013A02605869D3E9022493
:10180C0094606260426803F1040A5245026808BFA2
:10181C004460013A0260D86A34680CFA00F2224340
:10182C000EFB00F40F1932607A68D2F808B09A6097
:10183C00C3F80CB0D2F808B0CBF804A0C2F808A0DA
:10184C000A595F6101320A51D8F80020D26A9042DD
:10185C0001D3C9F800C02A68002ABBD10BB1FFF72D
:10186C0089FD154D2C6844B10127124EFFF7E2FE9D
:10187C0000B13760013CF9D12C600E4B1B68002B7A
:10188C0092D04FF0E0234FF08052C3F8042DBFF3F9
:10189C004F8FBFF36F8F012487E700BFFC00002040
:1018AC00F4000020400100200401002090000020E2
:1018BC0084000020840100203C01002008B550B9B0
:1018CC004FF0E0234FF08052C3F8042DBFF34F8F3D
:1018DC00BFF36F8F08BD0021FFF7A4FEFFF7F8FCE4
:1018EC00FFF758FF0028EBD0F4E70000124B30B59F
:1018FC001A68124B12B101221A6030BD1A60104BDB
:10190C001B68B3FA83F31425DBB2C3F11F0305FB89
:10191C0003F20C4988184468083264680A449442FB
:10192C0005FB031108BF6268446008BF42604B6846
:10193C00DA68054BE0E700BFFC00002084010020C2
:10194C0004010020900000208400002010B50C46FB
:10195C00054B19681831FFF7BAFA2046BDE810405C
:10196C000121FFF7B5BC00BF84000020C368F0B5AF
:10197C00DB689A6AD3E9070181604860506803F11B
:10198C001804A04208BF5160002199621168D86AFE
:10199C00013911601E4A1268002A2CD1D3E9024188
:1019AC005A69A160D9681D1D4C605468AC4208BFCF
:1019BC0051601168013911600122164982400C688E
:1019CC0022430A6014224243134CA61871688F6894
:1019DC009960DF608F687D608D605E61A358013314
:1019EC00A3500E4B1B68DB6A984285BF01200C4B41
:1019FC0000201860F0BD0B4A51688D68D9611D62DA
:101A0C008D686C608C609A62136801331360E8E730
:101A1C00FC00002004010020900000208400002025
:101A2C008401002040010020034B1B680360034B22
:101A3C001B684360704700BF380100208001002004
:101A4C0070B50D46044600F05BF80F4B19682B6817
:101A5C005A1C17D00D48266800686268864208D068
:101A6C008A4206D8002301242B6000F059F8204646
:101A7C0070BD881A8342F5D95B1A134420462B603B
:101A8C00FFF7D2FF0024F0E780010020380100208E
:101A9C000122014B1A60704784010020002382B0A0
:101AAC0001934FF0BF0383F31188BFF36F8FBFF324
:101ABC004F8F019B002BFCD002B07047064800688A
:101ACC00006880F3088862B661B6BFF34F8FBFF32E
:101ADC006F8F00DF00BF000008ED00E04FF0807357
:101AEC0040F8043C054B21F0010140F8081C40F87B
:101AFC000C3C40F8202C4038704700BFA91A000855
:101B0C004FF0BF0383F31188BFF36F8FBFF34F8F79
:101B1C00024A136801331360704700BF14000020A1
:101B2C00034A1368013B13600BB983F311887047A8
:101B3C00140000204FF0E02300221A619A6141F654
:101B4C003F725A6107221A61704700004FF0E02380
:101B5C0010B50024D3F8202D42F47F02C3F8202DB9
:101B6C00D3F8202D42F07F42C3F8202DFFF7E2FF7F
:101B7C00044B1C60FFF7A2FFFFF7B8FEFFF78EFFC8
:101B8C00204610BD14000020430710B5044606D0B3
:101B9C0020F00703083383428CBF1C460024FFF758
:101BAC0041FD0D490B681BB90C4B23F007030B606F
:101BBC005CB10B480268131944F2F734A34208D8FD
:101BCC009A4206D20C6803601444FFF7E3FD2046EA
:101BDC0010BD0024F9E700BF88010020930100200C
:101BEC008C450020704703460244934200D1704755
:101BFC0003F8011BF9E7000070B500260C4D0D4CE5
:101C0C00641BA410A64209D100F028F800260A4D46
:101C1C000A4C641BA410A64205D170BD55F8043BB8
:101C2C0098470136EEE755F8043B98470136F2E742
:101C3C00E81C0008E81C0008E81C0008EC1C000864
:101C4C000A44914200F1FF3300D1704710B511F8EE
:101C5C00014B914203F8014FF9D110BDF8B500BF0B
:101C6C00F8BC08BC9E467047F8B500BFF8BC08BC71
:041C7C009E467047C9
:101C80004F4E43524C46004F464643524C4600543A
:101C90004F47474C4543524C460055736172742080
:101CA0005461736B004C44345F5461736B00535741
:101CB000207461736B00000000000000000001024E
:101CC00003040607080900000000010203040203E0
:101CD0000405060708090A0B0C0D0E0F101001026F
:081CE00049444C4500000000DE
:041CE80031010008BE
:041CEC000D010008DE
:101CF0004F4E00000024F40001000000100000001E
:081D000004000000AAAAAAAA2F
:040000050800047972
:00000001FF
